{
  "contractName": "Qalam",
  "abi": [
    {
      "constant": true,
      "inputs": [],
      "name": "name",
      "outputs": [
        {
          "name": "",
          "type": "string"
        }
      ],
      "payable": false,
      "stateMutability": "view",
      "type": "function",
      "signature": "0x06fdde03"
    },
    {
      "inputs": [],
      "payable": false,
      "stateMutability": "nonpayable",
      "type": "constructor",
      "signature": "constructor"
    }
  ],
  "bytecode": "0x608060405234801561001057600080fd5b50606060405190810160405280602381526020017f51616c616d207e20416e204170702054686174204d616b657320596f7520577281526020017f697465000000000000000000000000000000000000000000000000000000000081525060009080519060200190610083929190610089565b5061012e565b828054600181600116156101000203166002900490600052602060002090601f016020900481019282601f106100ca57805160ff19168380011785556100f8565b828001600101855582156100f8579182015b828111156100f75782518255916020019190600101906100dc565b5b5090506101059190610109565b5090565b61012b91905b8082111561012757600081600090555060010161010f565b5090565b90565b6101a08061013d6000396000f3fe608060405260043610610041576000357c0100000000000000000000000000000000000000000000000000000000900463ffffffff16806306fdde0314610046575b600080fd5b34801561005257600080fd5b5061005b6100d6565b6040518080602001828103825283818151815260200191508051906020019080838360005b8381101561009b578082015181840152602081019050610080565b50505050905090810190601f1680156100c85780820380516001836020036101000a031916815260200191505b509250505060405180910390f35b60008054600181600116156101000203166002900480601f01602080910402602001604051908101604052809291908181526020018280546001816001161561010002031660029004801561016c5780601f106101415761010080835404028352916020019161016c565b820191906000526020600020905b81548152906001019060200180831161014f57829003601f168201915b50505050508156fea165627a7a7230582050dd82f3e8b4afc73951e7de113d03c8799ee9138638c109734461184d4ae5510029",
  "source": "pragma solidity ^0.5.0;\r\n\r\ncontract Qalam {\r\n    // State variable\r\n    string public name;\r\n\r\n    // Constructor function\r\n    constructor () public {\r\n        name = \"Qalam ~ An App That Makes You Write\";\r\n    }\r\n}",
  "sourcePath": "F:/qalam/src/contracts/Qalam.sol",
  "compiler": {
    "name": "solc",
    "version": "0.5.0+commit.1d4f565a.Emscripten.clang"
  },
  "schemaVersion": "3.0.2",
  "updatedAt": "2022-06-20T20:56:43.881Z",
  "devdoc": {
    "methods": {}
  },
  "userdoc": {
    "methods": {}
  }
}